{
  "_format": "hh-sol-artifact-1",
  "contractName": "kLoot",
  "sourceName": "contracts/kLoot.sol",
  "abi": [
    {
      "inputs": [
        {
          "internalType": "uint256",
          "name": "maxBatchSize_",
          "type": "uint256"
        },
        {
          "internalType": "uint256",
          "name": "collectionSize_",
          "type": "uint256"
        },
        {
          "internalType": "uint256",
          "name": "amountForDevs_",
          "type": "uint256"
        }
      ],
      "stateMutability": "nonpayable",
      "type": "constructor"
    },
    {
      "anonymous": false,
      "inputs": [
        {
          "indexed": true,
          "internalType": "address",
          "name": "owner",
          "type": "address"
        },
        {
          "indexed": true,
          "internalType": "address",
          "name": "approved",
          "type": "address"
        },
        {
          "indexed": true,
          "internalType": "uint256",
          "name": "tokenId",
          "type": "uint256"
        }
      ],
      "name": "Approval",
      "type": "event"
    },
    {
      "anonymous": false,
      "inputs": [
        {
          "indexed": true,
          "internalType": "address",
          "name": "owner",
          "type": "address"
        },
        {
          "indexed": true,
          "internalType": "address",
          "name": "operator",
          "type": "address"
        },
        {
          "indexed": false,
          "internalType": "bool",
          "name": "approved",
          "type": "bool"
        }
      ],
      "name": "ApprovalForAll",
      "type": "event"
    },
    {
      "anonymous": false,
      "inputs": [
        {
          "indexed": true,
          "internalType": "address",
          "name": "previousOwner",
          "type": "address"
        },
        {
          "indexed": true,
          "internalType": "address",
          "name": "newOwner",
          "type": "address"
        }
      ],
      "name": "OwnershipTransferred",
      "type": "event"
    },
    {
      "anonymous": false,
      "inputs": [
        {
          "indexed": true,
          "internalType": "address",
          "name": "from",
          "type": "address"
        },
        {
          "indexed": true,
          "internalType": "address",
          "name": "to",
          "type": "address"
        },
        {
          "indexed": true,
          "internalType": "uint256",
          "name": "tokenId",
          "type": "uint256"
        }
      ],
      "name": "Transfer",
      "type": "event"
    },
    {
      "inputs": [
        {
          "internalType": "address",
          "name": "",
          "type": "address"
        }
      ],
      "name": "allowlist",
      "outputs": [
        {
          "internalType": "uint256",
          "name": "",
          "type": "uint256"
        }
      ],
      "stateMutability": "view",
      "type": "function"
    },
    {
      "inputs": [],
      "name": "amountForDevs",
      "outputs": [
        {
          "internalType": "uint256",
          "name": "",
          "type": "uint256"
        }
      ],
      "stateMutability": "view",
      "type": "function"
    },
    {
      "inputs": [
        {
          "internalType": "address",
          "name": "to",
          "type": "address"
        },
        {
          "internalType": "uint256",
          "name": "tokenId",
          "type": "uint256"
        }
      ],
      "name": "approve",
      "outputs": [],
      "stateMutability": "nonpayable",
      "type": "function"
    },
    {
      "inputs": [
        {
          "internalType": "address",
          "name": "owner",
          "type": "address"
        }
      ],
      "name": "balanceOf",
      "outputs": [
        {
          "internalType": "uint256",
          "name": "",
          "type": "uint256"
        }
      ],
      "stateMutability": "view",
      "type": "function"
    },
    {
      "inputs": [
        {
          "internalType": "uint256",
          "name": "quantity",
          "type": "uint256"
        }
      ],
      "name": "claim",
      "outputs": [],
      "stateMutability": "nonpayable",
      "type": "function"
    },
    {
      "inputs": [
        {
          "internalType": "uint256",
          "name": "tokenId",
          "type": "uint256"
        }
      ],
      "name": "getApproved",
      "outputs": [
        {
          "internalType": "address",
          "name": "",
          "type": "address"
        }
      ],
      "stateMutability": "view",
      "type": "function"
    },
    {
      "inputs": [
        {
          "internalType": "uint256",
          "name": "tokenId",
          "type": "uint256"
        }
      ],
      "name": "getChest",
      "outputs": [
        {
          "internalType": "string",
          "name": "",
          "type": "string"
        }
      ],
      "stateMutability": "view",
      "type": "function"
    },
    {
      "inputs": [
        {
          "internalType": "uint256",
          "name": "tokenId",
          "type": "uint256"
        }
      ],
      "name": "getFoot",
      "outputs": [
        {
          "internalType": "string",
          "name": "",
          "type": "string"
        }
      ],
      "stateMutability": "view",
      "type": "function"
    },
    {
      "inputs": [
        {
          "internalType": "uint256",
          "name": "tokenId",
          "type": "uint256"
        }
      ],
      "name": "getHand",
      "outputs": [
        {
          "internalType": "string",
          "name": "",
          "type": "string"
        }
      ],
      "stateMutability": "view",
      "type": "function"
    },
    {
      "inputs": [
        {
          "internalType": "uint256",
          "name": "tokenId",
          "type": "uint256"
        }
      ],
      "name": "getHead",
      "outputs": [
        {
          "internalType": "string",
          "name": "",
          "type": "string"
        }
      ],
      "stateMutability": "view",
      "type": "function"
    },
    {
      "inputs": [
        {
          "internalType": "uint256",
          "name": "tokenId",
          "type": "uint256"
        }
      ],
      "name": "getNeck",
      "outputs": [
        {
          "internalType": "string",
          "name": "",
          "type": "string"
        }
      ],
      "stateMutability": "view",
      "type": "function"
    },
    {
      "inputs": [
        {
          "internalType": "uint256",
          "name": "tokenId",
          "type": "uint256"
        }
      ],
      "name": "getRing",
      "outputs": [
        {
          "internalType": "string",
          "name": "",
          "type": "string"
        }
      ],
      "stateMutability": "view",
      "type": "function"
    },
    {
      "inputs": [
        {
          "internalType": "uint256",
          "name": "tokenId",
          "type": "uint256"
        }
      ],
      "name": "getWaist",
      "outputs": [
        {
          "internalType": "string",
          "name": "",
          "type": "string"
        }
      ],
      "stateMutability": "view",
      "type": "function"
    },
    {
      "inputs": [
        {
          "internalType": "uint256",
          "name": "tokenId",
          "type": "uint256"
        }
      ],
      "name": "getWeapon",
      "outputs": [
        {
          "internalType": "string",
          "name": "",
          "type": "string"
        }
      ],
      "stateMutability": "view",
      "type": "function"
    },
    {
      "inputs": [
        {
          "internalType": "address",
          "name": "owner",
          "type": "address"
        },
        {
          "internalType": "address",
          "name": "operator",
          "type": "address"
        }
      ],
      "name": "isApprovedForAll",
      "outputs": [
        {
          "internalType": "bool",
          "name": "",
          "type": "bool"
        }
      ],
      "stateMutability": "view",
      "type": "function"
    },
    {
      "inputs": [],
      "name": "maxPerAddressDuringMint",
      "outputs": [
        {
          "internalType": "uint256",
          "name": "",
          "type": "uint256"
        }
      ],
      "stateMutability": "view",
      "type": "function"
    },
    {
      "inputs": [],
      "name": "name",
      "outputs": [
        {
          "internalType": "string",
          "name": "",
          "type": "string"
        }
      ],
      "stateMutability": "view",
      "type": "function"
    },
    {
      "inputs": [],
      "name": "nextOwnerToExplicitlySet",
      "outputs": [
        {
          "internalType": "uint256",
          "name": "",
          "type": "uint256"
        }
      ],
      "stateMutability": "view",
      "type": "function"
    },
    {
      "inputs": [],
      "name": "owner",
      "outputs": [
        {
          "internalType": "address",
          "name": "",
          "type": "address"
        }
      ],
      "stateMutability": "view",
      "type": "function"
    },
    {
      "inputs": [
        {
          "internalType": "uint256",
          "name": "tokenId",
          "type": "uint256"
        }
      ],
      "name": "ownerOf",
      "outputs": [
        {
          "internalType": "address",
          "name": "",
          "type": "address"
        }
      ],
      "stateMutability": "view",
      "type": "function"
    },
    {
      "inputs": [],
      "name": "renounceOwnership",
      "outputs": [],
      "stateMutability": "nonpayable",
      "type": "function"
    },
    {
      "inputs": [
        {
          "internalType": "address",
          "name": "from",
          "type": "address"
        },
        {
          "internalType": "address",
          "name": "to",
          "type": "address"
        },
        {
          "internalType": "uint256",
          "name": "tokenId",
          "type": "uint256"
        }
      ],
      "name": "safeTransferFrom",
      "outputs": [],
      "stateMutability": "nonpayable",
      "type": "function"
    },
    {
      "inputs": [
        {
          "internalType": "address",
          "name": "from",
          "type": "address"
        },
        {
          "internalType": "address",
          "name": "to",
          "type": "address"
        },
        {
          "internalType": "uint256",
          "name": "tokenId",
          "type": "uint256"
        },
        {
          "internalType": "bytes",
          "name": "_data",
          "type": "bytes"
        }
      ],
      "name": "safeTransferFrom",
      "outputs": [],
      "stateMutability": "nonpayable",
      "type": "function"
    },
    {
      "inputs": [
        {
          "internalType": "address[]",
          "name": "addresses",
          "type": "address[]"
        },
        {
          "internalType": "uint256[]",
          "name": "numSlots",
          "type": "uint256[]"
        }
      ],
      "name": "seedAllowlist",
      "outputs": [],
      "stateMutability": "nonpayable",
      "type": "function"
    },
    {
      "inputs": [
        {
          "internalType": "address",
          "name": "operator",
          "type": "address"
        },
        {
          "internalType": "bool",
          "name": "approved",
          "type": "bool"
        }
      ],
      "name": "setApprovalForAll",
      "outputs": [],
      "stateMutability": "nonpayable",
      "type": "function"
    },
    {
      "inputs": [
        {
          "internalType": "bytes4",
          "name": "interfaceId",
          "type": "bytes4"
        }
      ],
      "name": "supportsInterface",
      "outputs": [
        {
          "internalType": "bool",
          "name": "",
          "type": "bool"
        }
      ],
      "stateMutability": "view",
      "type": "function"
    },
    {
      "inputs": [],
      "name": "symbol",
      "outputs": [
        {
          "internalType": "string",
          "name": "",
          "type": "string"
        }
      ],
      "stateMutability": "view",
      "type": "function"
    },
    {
      "inputs": [
        {
          "internalType": "uint256",
          "name": "index",
          "type": "uint256"
        }
      ],
      "name": "tokenByIndex",
      "outputs": [
        {
          "internalType": "uint256",
          "name": "",
          "type": "uint256"
        }
      ],
      "stateMutability": "view",
      "type": "function"
    },
    {
      "inputs": [
        {
          "internalType": "address",
          "name": "owner",
          "type": "address"
        },
        {
          "internalType": "uint256",
          "name": "index",
          "type": "uint256"
        }
      ],
      "name": "tokenOfOwnerByIndex",
      "outputs": [
        {
          "internalType": "uint256",
          "name": "",
          "type": "uint256"
        }
      ],
      "stateMutability": "view",
      "type": "function"
    },
    {
      "inputs": [
        {
          "internalType": "uint256",
          "name": "tokenId",
          "type": "uint256"
        }
      ],
      "name": "tokenURI",
      "outputs": [
        {
          "internalType": "string",
          "name": "",
          "type": "string"
        }
      ],
      "stateMutability": "view",
      "type": "function"
    },
    {
      "inputs": [],
      "name": "totalSupply",
      "outputs": [
        {
          "internalType": "uint256",
          "name": "",
          "type": "uint256"
        }
      ],
      "stateMutability": "view",
      "type": "function"
    },
    {
      "inputs": [
        {
          "internalType": "address",
          "name": "from",
          "type": "address"
        },
        {
          "internalType": "address",
          "name": "to",
          "type": "address"
        },
        {
          "internalType": "uint256",
          "name": "tokenId",
          "type": "uint256"
        }
      ],
      "name": "transferFrom",
      "outputs": [],
      "stateMutability": "nonpayable",
      "type": "function"
    },
    {
      "inputs": [
        {
          "internalType": "address",
          "name": "newOwner",
          "type": "address"
        }
      ],
      "name": "transferOwnership",
      "outputs": [],
      "stateMutability": "nonpayable",
      "type": "function"
    }
  ],
  "bytecode": "0x610100604052600160005560006007556040518061024001604052806040518060400160405280600981526020017f57617268616d6d6572000000000000000000000000000000000000000000000081525081526020016040518060400160405280600c81526020017f517561727465727374616666000000000000000000000000000000000000000081525081526020016040518060400160405280600481526020017f4d61756c0000000000000000000000000000000000000000000000000000000081525081526020016040518060400160405280600481526020017f4d6163650000000000000000000000000000000000000000000000000000000081525081526020016040518060400160405280600481526020017f436c75620000000000000000000000000000000000000000000000000000000081525081526020016040518060400160405280600681526020017f4b6174616e61000000000000000000000000000000000000000000000000000081525081526020016040518060400160405280600881526020017f46616c6368696f6e00000000000000000000000000000000000000000000000081525081526020016040518060400160405280600881526020017f5363696d6974617200000000000000000000000000000000000000000000000081525081526020016040518060400160405280600a81526020017f4c6f6e672053776f72640000000000000000000000000000000000000000000081525081526020016040518060400160405280600b81526020017f53686f72742053776f726400000000000000000000000000000000000000000081525081526020016040518060400160405280600a81526020017f47686f73742057616e640000000000000000000000000000000000000000000081525081526020016040518060400160405280600a81526020017f47726176652057616e640000000000000000000000000000000000000000000081525081526020016040518060400160405280600981526020017f426f6e652057616e64000000000000000000000000000000000000000000000081525081526020016040518060400160405280600481526020017f57616e640000000000000000000000000000000000000000000000000000000081525081526020016040518060400160405280600881526020017f4772696d6f69726500000000000000000000000000000000000000000000000081525081526020016040518060400160405280600981526020017f4368726f6e69636c65000000000000000000000000000000000000000000000081525081526020016040518060400160405280600481526020017f546f6d650000000000000000000000000000000000000000000000000000000081525081526020016040518060400160405280600481526020017f426f6f6b00000000000000000000000000000000000000000000000000000000815250815250600b90601262000451929190620032d2565b50604051806101e001604052806040518060400160405280600b81526020017f446976696e6520526f626500000000000000000000000000000000000000000081525081526020016040518060400160405280600981526020017f53696c6b20526f6265000000000000000000000000000000000000000000000081525081526020016040518060400160405280600a81526020017f4c696e656e20526f62650000000000000000000000000000000000000000000081525081526020016040518060400160405280600481526020017f526f62650000000000000000000000000000000000000000000000000000000081525081526020016040518060400160405280600581526020017f536869727400000000000000000000000000000000000000000000000000000081525081526020016040518060400160405280600a81526020017f44656d6f6e204875736b0000000000000000000000000000000000000000000081525081526020016040518060400160405280601081526020017f447261676f6e736b696e2041726d6f720000000000000000000000000000000081525081526020016040518060400160405280601581526020017f53747564646564204c6561746865722041726d6f72000000000000000000000081525081526020016040518060400160405280601281526020017f48617264204c6561746865722041726d6f72000000000000000000000000000081525081526020016040518060400160405280600d81526020017f4c6561746865722041726d6f720000000000000000000000000000000000000081525081526020016040518060400160405280600f81526020017f486f6c79204368657374706c617465000000000000000000000000000000000081525081526020016040518060400160405280601181526020017f4f726e617465204368657374706c61746500000000000000000000000000000081525081526020016040518060400160405280600a81526020017f506c617465204d61696c0000000000000000000000000000000000000000000081525081526020016040518060400160405280600a81526020017f436861696e204d61696c0000000000000000000000000000000000000000000081525081526020016040518060400160405280600981526020017f52696e67204d61696c0000000000000000000000000000000000000000000000815250815250600c90600f620007e392919062003339565b50604051806101e001604052806040518060400160405280600c81526020017f416e6369656e742048656c6d000000000000000000000000000000000000000081525081526020016040518060400160405280600b81526020017f4f726e6174652048656c6d00000000000000000000000000000000000000000081525081526020016040518060400160405280600a81526020017f47726561742048656c6d0000000000000000000000000000000000000000000081525081526020016040518060400160405280600981526020017f46756c6c2048656c6d000000000000000000000000000000000000000000000081525081526020016040518060400160405280600481526020017f48656c6d0000000000000000000000000000000000000000000000000000000081525081526020016040518060400160405280600b81526020017f44656d6f6e2043726f776e00000000000000000000000000000000000000000081525081526020016040518060400160405280600e81526020017f447261676f6e27732043726f776e00000000000000000000000000000000000081525081526020016040518060400160405280600781526020017f576172204361700000000000000000000000000000000000000000000000000081525081526020016040518060400160405280600b81526020017f4c6561746865722043617000000000000000000000000000000000000000000081525081526020016040518060400160405280600381526020017f436170000000000000000000000000000000000000000000000000000000000081525081526020016040518060400160405280600581526020017f43726f776e00000000000000000000000000000000000000000000000000000081525081526020016040518060400160405280600b81526020017f446976696e6520486f6f6400000000000000000000000000000000000000000081525081526020016040518060400160405280600981526020017f53696c6b20486f6f64000000000000000000000000000000000000000000000081525081526020016040518060400160405280600a81526020017f4c696e656e20486f6f640000000000000000000000000000000000000000000081525081526020016040518060400160405280600481526020017f486f6f6400000000000000000000000000000000000000000000000000000000815250815250600d90600f62000b7592919062003339565b50604051806101e001604052806040518060400160405280600b81526020017f4f726e6174652042656c7400000000000000000000000000000000000000000081525081526020016040518060400160405280600881526020017f5761722042656c7400000000000000000000000000000000000000000000000081525081526020016040518060400160405280600b81526020017f506c617465642042656c7400000000000000000000000000000000000000000081525081526020016040518060400160405280600981526020017f4d6573682042656c74000000000000000000000000000000000000000000000081525081526020016040518060400160405280600a81526020017f48656176792042656c740000000000000000000000000000000000000000000081525081526020016040518060400160405280600e81526020017f44656d6f6e686964652042656c7400000000000000000000000000000000000081525081526020016040518060400160405280600f81526020017f447261676f6e736b696e2042656c74000000000000000000000000000000000081525081526020016040518060400160405280601481526020017f53747564646564204c6561746865722042656c7400000000000000000000000081525081526020016040518060400160405280601181526020017f48617264204c6561746865722042656c7400000000000000000000000000000081525081526020016040518060400160405280600c81526020017f4c6561746865722042656c74000000000000000000000000000000000000000081525081526020016040518060400160405280600f81526020017f42726967687473696c6b2053617368000000000000000000000000000000000081525081526020016040518060400160405280600981526020017f53696c6b2053617368000000000000000000000000000000000000000000000081525081526020016040518060400160405280600981526020017f576f6f6c2053617368000000000000000000000000000000000000000000000081525081526020016040518060400160405280600a81526020017f4c696e656e20536173680000000000000000000000000000000000000000000081525081526020016040518060400160405280600481526020017f5361736800000000000000000000000000000000000000000000000000000000815250815250600e90600f62000f0792919062003339565b50604051806101e001604052806040518060400160405280600c81526020017f486f6c792047726561766573000000000000000000000000000000000000000081525081526020016040518060400160405280600e81526020017f4f726e617465204772656176657300000000000000000000000000000000000081525081526020016040518060400160405280600781526020017f477265617665730000000000000000000000000000000000000000000000000081525081526020016040518060400160405280600b81526020017f436861696e20426f6f747300000000000000000000000000000000000000000081525081526020016040518060400160405280600b81526020017f486561767920426f6f747300000000000000000000000000000000000000000081525081526020016040518060400160405280600f81526020017f44656d6f6e6869646520426f6f7473000000000000000000000000000000000081525081526020016040518060400160405280601081526020017f447261676f6e736b696e20426f6f74730000000000000000000000000000000081525081526020016040518060400160405280601581526020017f53747564646564204c65617468657220426f6f7473000000000000000000000081525081526020016040518060400160405280601281526020017f48617264204c65617468657220426f6f7473000000000000000000000000000081525081526020016040518060400160405280600d81526020017f4c65617468657220426f6f74730000000000000000000000000000000000000081525081526020016040518060400160405280600f81526020017f446976696e6520536c697070657273000000000000000000000000000000000081525081526020016040518060400160405280600d81526020017f53696c6b20536c6970706572730000000000000000000000000000000000000081525081526020016040518060400160405280600a81526020017f576f6f6c2053686f65730000000000000000000000000000000000000000000081525081526020016040518060400160405280600b81526020017f4c696e656e2053686f657300000000000000000000000000000000000000000081525081526020016040518060400160405280600581526020017f53686f6573000000000000000000000000000000000000000000000000000000815250815250600f90600f6200129992919062003339565b50604051806101e001604052806040518060400160405280600e81526020017f486f6c79204761756e746c65747300000000000000000000000000000000000081525081526020016040518060400160405280601081526020017f4f726e617465204761756e746c6574730000000000000000000000000000000081525081526020016040518060400160405280600981526020017f4761756e746c657473000000000000000000000000000000000000000000000081525081526020016040518060400160405280600c81526020017f436861696e20476c6f766573000000000000000000000000000000000000000081525081526020016040518060400160405280600c81526020017f486561767920476c6f766573000000000000000000000000000000000000000081525081526020016040518060400160405280600d81526020017f44656d6f6e27732048616e64730000000000000000000000000000000000000081525081526020016040518060400160405280601181526020017f447261676f6e736b696e20476c6f76657300000000000000000000000000000081525081526020016040518060400160405280601681526020017f53747564646564204c65617468657220476c6f7665730000000000000000000081525081526020016040518060400160405280601381526020017f48617264204c65617468657220476c6f7665730000000000000000000000000081525081526020016040518060400160405280600e81526020017f4c65617468657220476c6f76657300000000000000000000000000000000000081525081526020016040518060400160405280600d81526020017f446976696e6520476c6f7665730000000000000000000000000000000000000081525081526020016040518060400160405280600b81526020017f53696c6b20476c6f76657300000000000000000000000000000000000000000081525081526020016040518060400160405280600b81526020017f576f6f6c20476c6f76657300000000000000000000000000000000000000000081525081526020016040518060400160405280600c81526020017f4c696e656e20476c6f766573000000000000000000000000000000000000000081525081526020016040518060400160405280600681526020017f476c6f7665730000000000000000000000000000000000000000000000000000815250815250601090600f6200162b92919062003339565b5060405180606001604052806040518060400160405280600881526020017f4e65636b6c61636500000000000000000000000000000000000000000000000081525081526020016040518060400160405280600681526020017f416d756c6574000000000000000000000000000000000000000000000000000081525081526020016040518060400160405280600781526020017f50656e64616e74000000000000000000000000000000000000000000000000008152508152506011906003620016f8929190620033a0565b506040518060a001604052806040518060400160405280600981526020017f476f6c642052696e67000000000000000000000000000000000000000000000081525081526020016040518060400160405280600b81526020017f53696c7665722052696e6700000000000000000000000000000000000000000081525081526020016040518060400160405280600b81526020017f42726f6e7a652052696e6700000000000000000000000000000000000000000081525081526020016040518060400160405280600d81526020017f506c6174696e756d2052696e670000000000000000000000000000000000000081525081526020016040518060400160405280600d81526020017f546974616e69756d2052696e670000000000000000000000000000000000000081525081525060129060056200183b92919062003407565b506040518061020001604052806040518060400160405280600881526020017f6f6620506f77657200000000000000000000000000000000000000000000000081525081526020016040518060400160405280600981526020017f6f66204769616e7473000000000000000000000000000000000000000000000081525081526020016040518060400160405280600981526020017f6f6620546974616e73000000000000000000000000000000000000000000000081525081526020016040518060400160405280600881526020017f6f6620536b696c6c00000000000000000000000000000000000000000000000081525081526020016040518060400160405280600d81526020017f6f662050657266656374696f6e0000000000000000000000000000000000000081525081526020016040518060400160405280600d81526020017f6f66204272696c6c69616e63650000000000000000000000000000000000000081525081526020016040518060400160405280601081526020017f6f6620456e6c69676874656e6d656e740000000000000000000000000000000081525081526020016040518060400160405280600d81526020017f6f662050726f74656374696f6e0000000000000000000000000000000000000081525081526020016040518060400160405280600881526020017f6f6620416e67657200000000000000000000000000000000000000000000000081525081526020016040518060400160405280600781526020017f6f6620526167650000000000000000000000000000000000000000000000000081525081526020016040518060400160405280600781526020017f6f6620467572790000000000000000000000000000000000000000000000000081525081526020016040518060400160405280600a81526020017f6f662056697472696f6c0000000000000000000000000000000000000000000081525081526020016040518060400160405280600a81526020017f6f662074686520466f780000000000000000000000000000000000000000000081525081526020016040518060400160405280600c81526020017f6f6620446574656374696f6e000000000000000000000000000000000000000081525081526020016040518060400160405280600d81526020017f6f66205265666c656374696f6e0000000000000000000000000000000000000081525081526020016040518060400160405280600c81526020017f6f6620746865205477696e730000000000000000000000000000000000000000815250815250601390601062001c089291906200346e565b50604051806108a001604052806040518060400160405280600581526020017f41676f6e7900000000000000000000000000000000000000000000000000000081525081526020016040518060400160405280600a81526020017f41706f63616c797073650000000000000000000000000000000000000000000081525081526020016040518060400160405280600a81526020017f41726d61676564646f6e0000000000000000000000000000000000000000000081525081526020016040518060400160405280600581526020017f426561737400000000000000000000000000000000000000000000000000000081525081526020016040518060400160405280600881526020017f426568656d6f746800000000000000000000000000000000000000000000000081525081526020016040518060400160405280600681526020017f426c69676874000000000000000000000000000000000000000000000000000081525081526020016040518060400160405280600581526020017f426c6f6f6400000000000000000000000000000000000000000000000000000081525081526020016040518060400160405280600781526020017f4272616d626c650000000000000000000000000000000000000000000000000081525081526020016040518060400160405280600981526020017f4272696d73746f6e65000000000000000000000000000000000000000000000081525081526020016040518060400160405280600581526020017f42726f6f6400000000000000000000000000000000000000000000000000000081525081526020016040518060400160405280600781526020017f43617272696f6e0000000000000000000000000000000000000000000000000081525081526020016040518060400160405280600981526020017f43617461636c79736d000000000000000000000000000000000000000000000081525081526020016040518060400160405280600881526020017f4368696d6572696300000000000000000000000000000000000000000000000081525081526020016040518060400160405280600681526020017f436f72707365000000000000000000000000000000000000000000000000000081525081526020016040518060400160405280600a81526020017f436f7272757074696f6e0000000000000000000000000000000000000000000081525081526020016040518060400160405280600981526020017f44616d6e6174696f6e000000000000000000000000000000000000000000000081525081526020016040518060400160405280600581526020017f446561746800000000000000000000000000000000000000000000000000000081525081526020016040518060400160405280600581526020017f44656d6f6e00000000000000000000000000000000000000000000000000000081525081526020016040518060400160405280600481526020017f446972650000000000000000000000000000000000000000000000000000000081525081526020016040518060400160405280600681526020017f447261676f6e000000000000000000000000000000000000000000000000000081525081526020016040518060400160405280600581526020017f447265616400000000000000000000000000000000000000000000000000000081525081526020016040518060400160405280600481526020017f446f6f6d0000000000000000000000000000000000000000000000000000000081525081526020016040518060400160405280600481526020017f4475736b0000000000000000000000000000000000000000000000000000000081525081526020016040518060400160405280600581526020017f4561676c6500000000000000000000000000000000000000000000000000000081525081526020016040518060400160405280600881526020017f456d70797265616e00000000000000000000000000000000000000000000000081525081526020016040518060400160405280600481526020017f466174650000000000000000000000000000000000000000000000000000000081525081526020016040518060400160405280600381526020017f466f65000000000000000000000000000000000000000000000000000000000081525081526020016040518060400160405280600481526020017f47616c650000000000000000000000000000000000000000000000000000000081525081526020016040518060400160405280600581526020017f47686f756c00000000000000000000000000000000000000000000000000000081525081526020016040518060400160405280600581526020017f476c6f6f6d00000000000000000000000000000000000000000000000000000081525081526020016040518060400160405280600581526020017f476c79706800000000000000000000000000000000000000000000000000000081525081526020016040518060400160405280600581526020017f476f6c656d00000000000000000000000000000000000000000000000000000081525081526020016040518060400160405280600481526020017f4772696d0000000000000000000000000000000000000000000000000000000081525081526020016040518060400160405280600481526020017f486174650000000000000000000000000000000000000000000000000000000081525081526020016040518060400160405280600581526020017f4861766f6300000000000000000000000000000000000000000000000000000081525081526020016040518060400160405280600681526020017f486f6e6f7572000000000000000000000000000000000000000000000000000081525081526020016040518060400160405280600681526020017f486f72726f72000000000000000000000000000000000000000000000000000081525081526020016040518060400160405280600881526020017f4879706e6f74696300000000000000000000000000000000000000000000000081525081526020016040518060400160405280600681526020017f4b72616b656e000000000000000000000000000000000000000000000000000081525081526020016040518060400160405280600581526020017f4c6f61746800000000000000000000000000000000000000000000000000000081525081526020016040518060400160405280600981526020017f4d61656c7374726f6d000000000000000000000000000000000000000000000081525081526020016040518060400160405280600481526020017f4d696e640000000000000000000000000000000000000000000000000000000081525081526020016040518060400160405280600781526020017f4d697261636c650000000000000000000000000000000000000000000000000081525081526020016040518060400160405280600681526020017f4d6f72626964000000000000000000000000000000000000000000000000000081525081526020016040518060400160405280600881526020017f4f626c6976696f6e00000000000000000000000000000000000000000000000081525081526020016040518060400160405280600981526020017f4f6e736c6175676874000000000000000000000000000000000000000000000081525081526020016040518060400160405280600481526020017f5061696e0000000000000000000000000000000000000000000000000000000081525081526020016040518060400160405280600b81526020017f50616e64656d6f6e69756d00000000000000000000000000000000000000000081525081526020016040518060400160405280600781526020017f50686f656e69780000000000000000000000000000000000000000000000000081525081526020016040518060400160405280600681526020017f506c61677565000000000000000000000000000000000000000000000000000081525081526020016040518060400160405280600481526020017f526167650000000000000000000000000000000000000000000000000000000081525081526020016040518060400160405280600781526020017f526170747572650000000000000000000000000000000000000000000000000081525081526020016040518060400160405280600481526020017f52756e650000000000000000000000000000000000000000000000000000000081525081526020016040518060400160405280600581526020017f536b756c6c00000000000000000000000000000000000000000000000000000081525081526020016040518060400160405280600381526020017f536f6c000000000000000000000000000000000000000000000000000000000081525081526020016040518060400160405280600481526020017f536f756c0000000000000000000000000000000000000000000000000000000081525081526020016040518060400160405280600681526020017f536f72726f77000000000000000000000000000000000000000000000000000081525081526020016040518060400160405280600681526020017f537069726974000000000000000000000000000000000000000000000000000081525081526020016040518060400160405280600581526020017f53746f726d00000000000000000000000000000000000000000000000000000081525081526020016040518060400160405280600781526020017f54656d706573740000000000000000000000000000000000000000000000000081525081526020016040518060400160405280600781526020017f546f726d656e740000000000000000000000000000000000000000000000000081525081526020016040518060400160405280600981526020017f56656e6765616e6365000000000000000000000000000000000000000000000081525081526020016040518060400160405280600781526020017f566963746f72790000000000000000000000000000000000000000000000000081525081526020016040518060400160405280600581526020017f566970657200000000000000000000000000000000000000000000000000000081525081526020016040518060400160405280600681526020017f566f72746578000000000000000000000000000000000000000000000000000081525081526020016040518060400160405280600381526020017f576f65000000000000000000000000000000000000000000000000000000000081525081526020016040518060400160405280600581526020017f577261746800000000000000000000000000000000000000000000000000000081525081526020016040518060400160405280600781526020017f4c6967687427730000000000000000000000000000000000000000000000000081525081526020016040518060400160405280600a81526020017f5368696d6d6572696e6700000000000000000000000000000000000000000000815250815250601490604562002c0c929190620034d5565b506040518061024001604052806040518060400160405280600481526020017f42616e650000000000000000000000000000000000000000000000000000000081525081526020016040518060400160405280600481526020017f526f6f740000000000000000000000000000000000000000000000000000000081525081526020016040518060400160405280600481526020017f426974650000000000000000000000000000000000000000000000000000000081525081526020016040518060400160405280600481526020017f536f6e670000000000000000000000000000000000000000000000000000000081525081526020016040518060400160405280600481526020017f526f61720000000000000000000000000000000000000000000000000000000081525081526020016040518060400160405280600581526020017f477261737000000000000000000000000000000000000000000000000000000081525081526020016040518060400160405280600a81526020017f496e737472756d656e740000000000000000000000000000000000000000000081525081526020016040518060400160405280600481526020017f476c6f770000000000000000000000000000000000000000000000000000000081525081526020016040518060400160405280600681526020017f42656e646572000000000000000000000000000000000000000000000000000081525081526020016040518060400160405280600681526020017f536861646f77000000000000000000000000000000000000000000000000000081525081526020016040518060400160405280600781526020017f576869737065720000000000000000000000000000000000000000000000000081525081526020016040518060400160405280600581526020017f53686f757400000000000000000000000000000000000000000000000000000081525081526020016040518060400160405280600581526020017f47726f776c00000000000000000000000000000000000000000000000000000081525081526020016040518060400160405280600481526020017f546561720000000000000000000000000000000000000000000000000000000081525081526020016040518060400160405280600481526020017f5065616b0000000000000000000000000000000000000000000000000000000081525081526020016040518060400160405280600481526020017f466f726d0000000000000000000000000000000000000000000000000000000081525081526020016040518060400160405280600381526020017f53756e000000000000000000000000000000000000000000000000000000000081525081526020016040518060400160405280600481526020017f4d6f6f6e0000000000000000000000000000000000000000000000000000000081525081525060159060126200304f929190620032d2565b503480156200305d57600080fd5b50604051620091e5380380620091e5833981810160405281019062003083919062003671565b6040518060400160405280600581526020017f6b4c6f6f740000000000000000000000000000000000000000000000000000008152506040518060400160405280600581526020017f6b4c4f4f5400000000000000000000000000000000000000000000000000000081525084846000811162003137576040517f08c379a00000000000000000000000000000000000000000000000000000000081526004016200312e9062003737565b60405180910390fd5b600082116200317d576040517f08c379a0000000000000000000000000000000000000000000000000000000008152600401620031749062003715565b60405180910390fd5b8360019080519060200190620031959291906200353c565b508260029080519060200190620031ae9291906200353c565b508160a081815250508060808181525050505050506001600881905550620031eb620031df6200320460201b60201c565b6200320c60201b60201c565b8260c081815250508060e0818152505050505062003891565b600033905090565b6000600960009054906101000a900473ffffffffffffffffffffffffffffffffffffffff16905081600960006101000a81548173ffffffffffffffffffffffffffffffffffffffff021916908373ffffffffffffffffffffffffffffffffffffffff1602179055508173ffffffffffffffffffffffffffffffffffffffff168173ffffffffffffffffffffffffffffffffffffffff167f8be0079c531659141344cd1fd0a4f28419497f9722a3daafe3b4186f6b6457e060405160405180910390a35050565b82805482825590600052602060002090810192821562003326579160200282015b8281111562003325578251829080519060200190620033149291906200353c565b5091602001919060010190620032f3565b5b509050620033359190620035cd565b5090565b8280548282559060005260206000209081019282156200338d579160200282015b828111156200338c5782518290805190602001906200337b9291906200353c565b50916020019190600101906200335a565b5b5090506200339c9190620035cd565b5090565b828054828255906000526020600020908101928215620033f4579160200282015b82811115620033f3578251829080519060200190620033e29291906200353c565b5091602001919060010190620033c1565b5b509050620034039190620035cd565b5090565b8280548282559060005260206000209081019282156200345b579160200282015b828111156200345a578251829080519060200190620034499291906200353c565b509160200191906001019062003428565b5b5090506200346a9190620035cd565b5090565b828054828255906000526020600020908101928215620034c2579160200282015b82811115620034c1578251829080519060200190620034b09291906200353c565b50916020019190600101906200348f565b5b509050620034d19190620035cd565b5090565b82805482825590600052602060002090810192821562003529579160200282015b8281111562003528578251829080519060200190620035179291906200353c565b5091602001919060010190620034f6565b5b509050620035389190620035cd565b5090565b8280546200354a9062003774565b90600052602060002090601f0160209004810192826200356e5760008555620035ba565b82601f106200358957805160ff1916838001178555620035ba565b82800160010185558215620035ba579182015b82811115620035b95782518255916020019190600101906200359c565b5b509050620035c99190620035f5565b5090565b5b80821115620035f15760008181620035e7919062003614565b50600101620035ce565b5090565b5b8082111562003610576000816000905550600101620035f6565b5090565b508054620036229062003774565b6000825580601f1062003636575062003657565b601f016020900490600052602060002090810190620036569190620035f5565b5b50565b6000815190506200366b8162003877565b92915050565b6000806000606084860312156200368757600080fd5b600062003697868287016200365a565b9350506020620036aa868287016200365a565b9250506040620036bd868287016200365a565b9150509250925092565b6000620036d660278362003759565b9150620036e382620037d9565b604082019050919050565b6000620036fd602e8362003759565b91506200370a8262003828565b604082019050919050565b600060208201905081810360008301526200373081620036c7565b9050919050565b600060208201905081810360008301526200375281620036ee565b9050919050565b600082825260208201905092915050565b6000819050919050565b600060028204905060018216806200378d57607f821691505b60208210811415620037a457620037a3620037aa565b5b50919050565b7f4e487b7100000000000000000000000000000000000000000000000000000000600052602260045260246000fd5b7f455243373231413a206d61782062617463682073697a65206d7573742062652060008201527f6e6f6e7a65726f00000000000000000000000000000000000000000000000000602082015250565b7f455243373231413a20636f6c6c656374696f6e206d757374206861766520612060008201527f6e6f6e7a65726f20737570706c79000000000000000000000000000000000000602082015250565b62003882816200376a565b81146200388e57600080fd5b50565b60805160a05160c05160e051615905620038e06000396000611f890152600061122e015260008181610e5c01528181612c6b01528181612c9401526134e201526000610de701526159056000f3fe608060405234801561001057600080fd5b50600436106101fb5760003560e01c80638da5cb5b1161011a578063b88d4fde116100ad578063d7224ba01161007c578063d7224ba014610634578063e985e9c514610652578063ef68075a14610682578063f2fde38b146106b2578063fbe1aa51146106ce576101fb565b8063b88d4fde14610588578063c08a5dd5146105a4578063c87b56dd146105d4578063d47f269e14610604576101fb565b80639e41b73f116100e95780639e41b73f146104f0578063a22cb46514610520578063a7cd52cb1461053c578063b05863d51461056c576101fb565b80638da5cb5b1461045457806395d89b41146104725780639720c969146104905780639bdc1b69146104c0576101fb565b8063379607f51161019257806367209aa81161016157806367209aa8146103cc57806370a08231146103fc578063715018a61461042c5780638bc35c2f14610436576101fb565b8063379607f51461033457806342842e0e146103505780634f6ccce71461036c5780636352211e1461039c576101fb565b80630e99990d116101ce5780630e99990d1461029a57806318160ddd146102ca57806323b872dd146102e85780632f745c5914610304576101fb565b806301ffc9a71461020057806306fdde0314610230578063081812fc1461024e578063095ea7b31461027e575b600080fd5b61021a60048036038101906102159190613dbd565b6106ec565b60405161022791906145ad565b60405180910390f35b610238610836565b60405161024591906145c8565b60405180910390f35b61026860048036038101906102639190613e0f565b6108c8565b6040516102759190614546565b60405180910390f35b61029860048036038101906102939190613d15565b61094d565b005b6102b460048036038101906102af9190613e0f565b610a66565b6040516102c191906145c8565b60405180910390f35b6102d2610b80565b6040516102df91906148fa565b60405180910390f35b61030260048036038101906102fd9190613c0f565b610b89565b005b61031e60048036038101906103199190613d15565b610b99565b60405161032b91906148fa565b60405180910390f35b61034e60048036038101906103499190613e0f565b610d97565b005b61036a60048036038101906103659190613c0f565b610f18565b005b61038660048036038101906103819190613e0f565b610f38565b60405161039391906148fa565b60405180910390f35b6103b660048036038101906103b19190613e0f565b610f8b565b6040516103c39190614546565b60405180910390f35b6103e660048036038101906103e19190613e0f565b610fa1565b6040516103f391906145c8565b60405180910390f35b61041660048036038101906104119190613baa565b6110bb565b60405161042391906148fa565b60405180910390f35b6104346111a4565b005b61043e61122c565b60405161044b91906148fa565b60405180910390f35b61045c611250565b6040516104699190614546565b60405180910390f35b61047a61127a565b60405161048791906145c8565b60405180910390f35b6104aa60048036038101906104a59190613e0f565b61130c565b6040516104b791906145c8565b60405180910390f35b6104da60048036038101906104d59190613e0f565b611426565b6040516104e791906145c8565b60405180910390f35b61050a60048036038101906105059190613e0f565b611540565b60405161051791906145c8565b60405180910390f35b61053a60048036038101906105359190613cd9565b61165a565b005b61055660048036038101906105519190613baa565b6117db565b60405161056391906148fa565b60405180910390f35b61058660048036038101906105819190613d51565b6117f3565b005b6105a2600480360381019061059d9190613c5e565b61199b565b005b6105be60048036038101906105b99190613e0f565b6119f7565b6040516105cb91906145c8565b60405180910390f35b6105ee60048036038101906105e99190613e0f565b611b11565b6040516105fb91906145c8565b60405180910390f35b61061e60048036038101906106199190613e0f565b611bc1565b60405161062b91906145c8565b60405180910390f35b61063c611cdb565b60405161064991906148fa565b60405180910390f35b61066c60048036038101906106679190613bd3565b611ce1565b60405161067991906145ad565b60405180910390f35b61069c60048036038101906106979190613e0f565b611d75565b6040516106a991906145c8565b60405180910390f35b6106cc60048036038101906106c79190613baa565b611e8f565b005b6106d6611f87565b6040516106e391906148fa565b60405180910390f35b60007f80ac58cd000000000000000000000000000000000000000000000000000000007bffffffffffffffffffffffffffffffffffffffffffffffffffffffff1916827bffffffffffffffffffffffffffffffffffffffffffffffffffffffff191614806107b757507f5b5e139f000000000000000000000000000000000000000000000000000000007bffffffffffffffffffffffffffffffffffffffffffffffffffffffff1916827bffffffffffffffffffffffffffffffffffffffffffffffffffffffff1916145b8061081f57507f780e9d63000000000000000000000000000000000000000000000000000000007bffffffffffffffffffffffffffffffffffffffffffffffffffffffff1916827bffffffffffffffffffffffffffffffffffffffffffffffffffffffff1916145b8061082f575061082e82611fab565b5b9050919050565b60606001805461084590614ca6565b80601f016020809104026020016040519081016040528092919081815260200182805461087190614ca6565b80156108be5780601f10610893576101008083540402835291602001916108be565b820191906000526020600020905b8154815290600101906020018083116108a157829003601f168201915b5050505050905090565b60006108d382612015565b610912576040517f08c379a00000000000000000000000000000000000000000000000000000000081526004016109099061489a565b60405180910390fd5b6005600083815260200190815260200160002060009054906101000a900473ffffffffffffffffffffffffffffffffffffffff169050919050565b600061095882610f8b565b90508073ffffffffffffffffffffffffffffffffffffffff168373ffffffffffffffffffffffffffffffffffffffff1614156109c9576040517f08c379a00000000000000000000000000000000000000000000000000000000081526004016109c0906147ba565b60405180910390fd5b8073ffffffffffffffffffffffffffffffffffffffff166109e8612022565b73ffffffffffffffffffffffffffffffffffffffff161480610a175750610a1681610a11612022565b611ce1565b5b610a56576040517f08c379a0000000000000000000000000000000000000000000000000000000008152600401610a4d906146da565b60405180910390fd5b610a6183838361202a565b505050565b6060610b79826040518060400160405280600481526020017f464f4f5400000000000000000000000000000000000000000000000000000000815250600f805480602002602001604051908101604052809291908181526020016000905b82821015610b70578382906000526020600020018054610ae390614ca6565b80601f0160208091040260200160405190810160405280929190818152602001828054610b0f90614ca6565b8015610b5c5780601f10610b3157610100808354040283529160200191610b5c565b820191906000526020600020905b815481529060010190602001808311610b3f57829003601f168201915b505050505081526020019060010190610ac4565b505050506120dc565b9050919050565b60008054905090565b610b948383836125a4565b505050565b6000610ba4836110bb565b8210610be5576040517f08c379a0000000000000000000000000000000000000000000000000000000008152600401610bdc9061461a565b60405180910390fd5b6000610bef610b80565b905060008060005b83811015610d55576000600360008381526020019081526020016000206040518060400160405290816000820160009054906101000a900473ffffffffffffffffffffffffffffffffffffffff1673ffffffffffffffffffffffffffffffffffffffff1673ffffffffffffffffffffffffffffffffffffffff1681526020016000820160149054906101000a900467ffffffffffffffff1667ffffffffffffffff1667ffffffffffffffff16815250509050600073ffffffffffffffffffffffffffffffffffffffff16816000015173ffffffffffffffffffffffffffffffffffffffff1614610ce957806000015192505b8773ffffffffffffffffffffffffffffffffffffffff168373ffffffffffffffffffffffffffffffffffffffff161415610d415786841415610d32578195505050505050610d91565b8380610d3d90614d09565b9450505b508080610d4d90614d09565b915050610bf7565b506040517f08c379a0000000000000000000000000000000000000000000000000000000008152600401610d889061483a565b60405180910390fd5b92915050565b60026008541415610ddd576040517f08c379a0000000000000000000000000000000000000000000000000000000008152600401610dd49061485a565b60405180910390fd5b60026008819055507f000000000000000000000000000000000000000000000000000000000000000081610e0f610b80565b610e199190614a61565b1115610e5a576040517f08c379a0000000000000000000000000000000000000000000000000000000008152600401610e519061471a565b60405180910390fd5b7f0000000000000000000000000000000000000000000000000000000000000000811115610ebd576040517f08c379a0000000000000000000000000000000000000000000000000000000008152600401610eb4906146ba565b60405180910390fd5b610ece610ec8612022565b82612b5d565b610f0d6040518060400160405280601881526020017f2573204e4654732068617665206265656e206d696e746564000000000000000081525082612b7b565b600160088190555050565b610f338383836040518060200160405280600081525061199b565b505050565b6000610f42610b80565b8210610f83576040517f08c379a0000000000000000000000000000000000000000000000000000000008152600401610f7a9061467a565b60405180910390fd5b819050919050565b6000610f9682612c17565b600001519050919050565b60606110b4826040518060400160405280600481526020017f4e45434b000000000000000000000000000000000000000000000000000000008152506011805480602002602001604051908101604052809291908181526020016000905b828210156110ab57838290600052602060002001805461101e90614ca6565b80601f016020809104026020016040519081016040528092919081815260200182805461104a90614ca6565b80156110975780601f1061106c57610100808354040283529160200191611097565b820191906000526020600020905b81548152906001019060200180831161107a57829003601f168201915b505050505081526020019060010190610fff565b505050506120dc565b9050919050565b60008073ffffffffffffffffffffffffffffffffffffffff168273ffffffffffffffffffffffffffffffffffffffff16141561112c576040517f08c379a0000000000000000000000000000000000000000000000000000000008152600401611123906146fa565b60405180910390fd5b600460008373ffffffffffffffffffffffffffffffffffffffff1673ffffffffffffffffffffffffffffffffffffffff16815260200190815260200160002060000160009054906101000a90046fffffffffffffffffffffffffffffffff166fffffffffffffffffffffffffffffffff169050919050565b6111ac612022565b73ffffffffffffffffffffffffffffffffffffffff166111ca611250565b73ffffffffffffffffffffffffffffffffffffffff1614611220576040517f08c379a00000000000000000000000000000000000000000000000000000000081526004016112179061475a565b60405180910390fd5b61122a6000612e1a565b565b7f000000000000000000000000000000000000000000000000000000000000000081565b6000600960009054906101000a900473ffffffffffffffffffffffffffffffffffffffff16905090565b60606002805461128990614ca6565b80601f01602080910402602001604051908101604052809291908181526020018280546112b590614ca6565b80156113025780601f106112d757610100808354040283529160200191611302565b820191906000526020600020905b8154815290600101906020018083116112e557829003601f168201915b5050505050905090565b606061141f826040518060400160405280600481526020017f4845414400000000000000000000000000000000000000000000000000000000815250600d805480602002602001604051908101604052809291908181526020016000905b8282101561141657838290600052602060002001805461138990614ca6565b80601f01602080910402602001604051908101604052809291908181526020018280546113b590614ca6565b80156114025780601f106113d757610100808354040283529160200191611402565b820191906000526020600020905b8154815290600101906020018083116113e557829003601f168201915b50505050508152602001906001019061136a565b505050506120dc565b9050919050565b6060611539826040518060400160405280600581526020017f5741495354000000000000000000000000000000000000000000000000000000815250600e805480602002602001604051908101604052809291908181526020016000905b828210156115305783829060005260206000200180546114a390614ca6565b80601f01602080910402602001604051908101604052809291908181526020018280546114cf90614ca6565b801561151c5780601f106114f15761010080835404028352916020019161151c565b820191906000526020600020905b8154815290600101906020018083116114ff57829003601f168201915b505050505081526020019060010190611484565b505050506120dc565b9050919050565b6060611653826040518060400160405280600681526020017f574541504f4e0000000000000000000000000000000000000000000000000000815250600b805480602002602001604051908101604052809291908181526020016000905b8282101561164a5783829060005260206000200180546115bd90614ca6565b80601f01602080910402602001604051908101604052809291908181526020018280546115e990614ca6565b80156116365780601f1061160b57610100808354040283529160200191611636565b820191906000526020600020905b81548152906001019060200180831161161957829003601f168201915b50505050508152602001906001019061159e565b505050506120dc565b9050919050565b611662612022565b73ffffffffffffffffffffffffffffffffffffffff168273ffffffffffffffffffffffffffffffffffffffff1614156116d0576040517f08c379a00000000000000000000000000000000000000000000000000000000081526004016116c79061477a565b60405180910390fd5b80600660006116dd612022565b73ffffffffffffffffffffffffffffffffffffffff1673ffffffffffffffffffffffffffffffffffffffff16815260200190815260200160002060008473ffffffffffffffffffffffffffffffffffffffff1673ffffffffffffffffffffffffffffffffffffffff16815260200190815260200160002060006101000a81548160ff0219169083151502179055508173ffffffffffffffffffffffffffffffffffffffff1661178a612022565b73ffffffffffffffffffffffffffffffffffffffff167f17307eab39ab6107e8899845ad3d59bd9653f200f220920489ca2b5937696c31836040516117cf91906145ad565b60405180910390a35050565b600a6020528060005260406000206000915090505481565b6117fb612022565b73ffffffffffffffffffffffffffffffffffffffff16611819611250565b73ffffffffffffffffffffffffffffffffffffffff161461186f576040517f08c379a00000000000000000000000000000000000000000000000000000000081526004016118669061475a565b60405180910390fd5b80518251146118b3576040517f08c379a00000000000000000000000000000000000000000000000000000000081526004016118aa906148da565b60405180910390fd5b60005b8251811015611996578181815181106118f8577f4e487b7100000000000000000000000000000000000000000000000000000000600052603260045260246000fd5b6020026020010151600a600085848151811061193d577f4e487b7100000000000000000000000000000000000000000000000000000000600052603260045260246000fd5b602002602001015173ffffffffffffffffffffffffffffffffffffffff1673ffffffffffffffffffffffffffffffffffffffff16815260200190815260200160002081905550808061198e90614d09565b9150506118b6565b505050565b6119a68484846125a4565b6119b284848484612ee0565b6119f1576040517f08c379a00000000000000000000000000000000000000000000000000000000081526004016119e8906147da565b60405180910390fd5b50505050565b6060611b0a826040518060400160405280600481526020017f52494e47000000000000000000000000000000000000000000000000000000008152506012805480602002602001604051908101604052809291908181526020016000905b82821015611b01578382906000526020600020018054611a7490614ca6565b80601f0160208091040260200160405190810160405280929190818152602001828054611aa090614ca6565b8015611aed5780601f10611ac257610100808354040283529160200191611aed565b820191906000526020600020905b815481529060010190602001808311611ad057829003601f168201915b505050505081526020019060010190611a55565b505050506120dc565b9050919050565b606080604051806101600160405280610136815260200161575a61013691399050600081604051602001611b4591906143c6565b60405160208183030381529060405290506000611b92611b6486613077565b611b6d84613224565b604051602001611b7e9291906144df565b604051602081830303815290604052613224565b905080604051602001611ba59190614524565b6040516020818303038152906040529150819350505050919050565b6060611cd4826040518060400160405280600481526020017f48414e44000000000000000000000000000000000000000000000000000000008152506010805480602002602001604051908101604052809291908181526020016000905b82821015611ccb578382906000526020600020018054611c3e90614ca6565b80601f0160208091040260200160405190810160405280929190818152602001828054611c6a90614ca6565b8015611cb75780601f10611c8c57610100808354040283529160200191611cb7565b820191906000526020600020905b815481529060010190602001808311611c9a57829003601f168201915b505050505081526020019060010190611c1f565b505050506120dc565b9050919050565b60075481565b6000600660008473ffffffffffffffffffffffffffffffffffffffff1673ffffffffffffffffffffffffffffffffffffffff16815260200190815260200160002060008373ffffffffffffffffffffffffffffffffffffffff1673ffffffffffffffffffffffffffffffffffffffff16815260200190815260200160002060009054906101000a900460ff16905092915050565b6060611e88826040518060400160405280600581526020017f4348455354000000000000000000000000000000000000000000000000000000815250600c805480602002602001604051908101604052809291908181526020016000905b82821015611e7f578382906000526020600020018054611df290614ca6565b80601f0160208091040260200160405190810160405280929190818152602001828054611e1e90614ca6565b8015611e6b5780601f10611e4057610100808354040283529160200191611e6b565b820191906000526020600020905b815481529060010190602001808311611e4e57829003601f168201915b505050505081526020019060010190611dd3565b505050506120dc565b9050919050565b611e97612022565b73ffffffffffffffffffffffffffffffffffffffff16611eb5611250565b73ffffffffffffffffffffffffffffffffffffffff1614611f0b576040517f08c379a0000000000000000000000000000000000000000000000000000000008152600401611f029061475a565b60405180910390fd5b600073ffffffffffffffffffffffffffffffffffffffff168173ffffffffffffffffffffffffffffffffffffffff161415611f7b576040517f08c379a0000000000000000000000000000000000000000000000000000000008152600401611f729061463a565b60405180910390fd5b611f8481612e1a565b50565b7f000000000000000000000000000000000000000000000000000000000000000081565b60007f01ffc9a7000000000000000000000000000000000000000000000000000000007bffffffffffffffffffffffffffffffffffffffffffffffffffffffff1916827bffffffffffffffffffffffffffffffffffffffffffffffffffffffff1916149050919050565b6000805482109050919050565b600033905090565b826005600084815260200190815260200160002060006101000a81548173ffffffffffffffffffffffffffffffffffffffff021916908373ffffffffffffffffffffffffffffffffffffffff160217905550818373ffffffffffffffffffffffffffffffffffffffff168273ffffffffffffffffffffffffffffffffffffffff167f8c5be1e5ebec7d5bd14f71427d1e84f3dd0314c0f7b2291e5b200ac8c7c3b92560405160405180910390a4505050565b60606000612112846120ed87613077565b6040516020016120fe9291906143dd565b6040516020818303038152906040526133e2565b90506000838451836121249190614d52565b8151811061215b577f4e487b7100000000000000000000000000000000000000000000000000000000600052603260045260246000fd5b6020026020010151905060006015836121749190614d52565b9050600e8111156121f6578160138080549050856121929190614d52565b815481106121c9577f4e487b7100000000000000000000000000000000000000000000000000000000600052603260045260246000fd5b906000526020600020016040516020016121e4929190614401565b60405160208183030381529060405291505b601381106125975761220661394c565b60148080549050856122189190614d52565b8154811061224f577f4e487b7100000000000000000000000000000000000000000000000000000000600052603260045260246000fd5b90600052602060002001805461226490614ca6565b80601f016020809104026020016040519081016040528092919081815260200182805461229090614ca6565b80156122dd5780601f106122b2576101008083540402835291602001916122dd565b820191906000526020600020905b8154815290600101906020018083116122c057829003601f168201915b50505050508160006002811061231c577f4e487b7100000000000000000000000000000000000000000000000000000000600052603260045260246000fd5b602002018190525060158080549050856123369190614d52565b8154811061236d577f4e487b7100000000000000000000000000000000000000000000000000000000600052603260045260246000fd5b90600052602060002001805461238290614ca6565b80601f01602080910402602001604051908101604052809291908181526020018280546123ae90614ca6565b80156123fb5780601f106123d0576101008083540402835291602001916123fb565b820191906000526020600020905b8154815290600101906020018083116123de57829003601f168201915b50505050508160016002811061243a577f4e487b7100000000000000000000000000000000000000000000000000000000600052603260045260246000fd5b602002018190525060138214156124f25780600060028110612485577f4e487b7100000000000000000000000000000000000000000000000000000000600052603260045260246000fd5b6020020151816001600281106124c4577f4e487b7100000000000000000000000000000000000000000000000000000000600052603260045260246000fd5b6020020151846040516020016124dc93929190614430565b6040516020818303038152906040529250612595565b8060006002811061252c577f4e487b7100000000000000000000000000000000000000000000000000000000600052603260045260246000fd5b60200201518160016002811061256b577f4e487b7100000000000000000000000000000000000000000000000000000000600052603260045260246000fd5b60200201518460405160200161258393929190614482565b60405160208183030381529060405292505b505b8193505050509392505050565b60006125af82612c17565b90506000816000015173ffffffffffffffffffffffffffffffffffffffff166125d6612022565b73ffffffffffffffffffffffffffffffffffffffff16148061263257506125fb612022565b73ffffffffffffffffffffffffffffffffffffffff1661261a846108c8565b73ffffffffffffffffffffffffffffffffffffffff16145b8061264e575061264d8260000151612648612022565b611ce1565b5b905080612690576040517f08c379a00000000000000000000000000000000000000000000000000000000081526004016126879061479a565b60405180910390fd5b8473ffffffffffffffffffffffffffffffffffffffff16826000015173ffffffffffffffffffffffffffffffffffffffff1614612702576040517f08c379a00000000000000000000000000000000000000000000000000000000081526004016126f99061473a565b60405180910390fd5b600073ffffffffffffffffffffffffffffffffffffffff168473ffffffffffffffffffffffffffffffffffffffff161415612772576040517f08c379a00000000000000000000000000000000000000000000000000000000081526004016127699061469a565b60405180910390fd5b61277f8585856001613415565b61278f600084846000015161202a565b6001600460008773ffffffffffffffffffffffffffffffffffffffff1673ffffffffffffffffffffffffffffffffffffffff16815260200190815260200160002060000160008282829054906101000a90046fffffffffffffffffffffffffffffffff166127fd9190614b42565b92506101000a8154816fffffffffffffffffffffffffffffffff02191690836fffffffffffffffffffffffffffffffff1602179055506001600460008673ffffffffffffffffffffffffffffffffffffffff1673ffffffffffffffffffffffffffffffffffffffff16815260200190815260200160002060000160008282829054906101000a90046fffffffffffffffffffffffffffffffff166128a19190614a1b565b92506101000a8154816fffffffffffffffffffffffffffffffff02191690836fffffffffffffffffffffffffffffffff16021790555060405180604001604052808573ffffffffffffffffffffffffffffffffffffffff1681526020014267ffffffffffffffff168152506003600085815260200190815260200160002060008201518160000160006101000a81548173ffffffffffffffffffffffffffffffffffffffff021916908373ffffffffffffffffffffffffffffffffffffffff16021790555060208201518160000160146101000a81548167ffffffffffffffff021916908367ffffffffffffffff16021790555090505060006001846129a79190614a61565b9050600073ffffffffffffffffffffffffffffffffffffffff166003600083815260200190815260200160002060000160009054906101000a900473ffffffffffffffffffffffffffffffffffffffff1673ffffffffffffffffffffffffffffffffffffffff161415612aed57612a1d81612015565b15612aec576040518060400160405280846000015173ffffffffffffffffffffffffffffffffffffffff168152602001846020015167ffffffffffffffff168152506003600083815260200190815260200160002060008201518160000160006101000a81548173ffffffffffffffffffffffffffffffffffffffff021916908373ffffffffffffffffffffffffffffffffffffffff16021790555060208201518160000160146101000a81548167ffffffffffffffff021916908367ffffffffffffffff1602179055509050505b5b838573ffffffffffffffffffffffffffffffffffffffff168773ffffffffffffffffffffffffffffffffffffffff167fddf252ad1be2c89b69c2b068fc378daa952ba7f163c4a11628f55a4df523b3ef60405160405180910390a4612b55868686600161341b565b505050505050565b612b77828260405180602001604052806000815250613421565b5050565b612c138282604051602401612b919291906145ea565b6040516020818303038152906040527f9710a9d0000000000000000000000000000000000000000000000000000000007bffffffffffffffffffffffffffffffffffffffffffffffffffffffff19166020820180517bffffffffffffffffffffffffffffffffffffffffffffffffffffffff8381831617835250505050613900565b5050565b612c1f613973565b612c2882612015565b612c67576040517f08c379a0000000000000000000000000000000000000000000000000000000008152600401612c5e9061465a565b60405180910390fd5b60007f00000000000000000000000000000000000000000000000000000000000000008310612ccb5760017f000000000000000000000000000000000000000000000000000000000000000084612cbe9190614b76565b612cc89190614a61565b90505b60008390505b818110612dd9576000600360008381526020019081526020016000206040518060400160405290816000820160009054906101000a900473ffffffffffffffffffffffffffffffffffffffff1673ffffffffffffffffffffffffffffffffffffffff1673ffffffffffffffffffffffffffffffffffffffff1681526020016000820160149054906101000a900467ffffffffffffffff1667ffffffffffffffff1667ffffffffffffffff16815250509050600073ffffffffffffffffffffffffffffffffffffffff16816000015173ffffffffffffffffffffffffffffffffffffffff1614612dc557809350505050612e15565b508080612dd190614c7c565b915050612cd1565b506040517f08c379a0000000000000000000000000000000000000000000000000000000008152600401612e0c9061487a565b60405180910390fd5b919050565b6000600960009054906101000a900473ffffffffffffffffffffffffffffffffffffffff16905081600960006101000a81548173ffffffffffffffffffffffffffffffffffffffff021916908373ffffffffffffffffffffffffffffffffffffffff1602179055508173ffffffffffffffffffffffffffffffffffffffff168173ffffffffffffffffffffffffffffffffffffffff167f8be0079c531659141344cd1fd0a4f28419497f9722a3daafe3b4186f6b6457e060405160405180910390a35050565b6000612f018473ffffffffffffffffffffffffffffffffffffffff16613929565b1561306a578373ffffffffffffffffffffffffffffffffffffffff1663150b7a02612f2a612022565b8786866040518563ffffffff1660e01b8152600401612f4c9493929190614561565b602060405180830381600087803b158015612f6657600080fd5b505af1925050508015612f9757506040513d601f19601f82011682018060405250810190612f949190613de6565b60015b61301a573d8060008114612fc7576040519150601f19603f3d011682016040523d82523d6000602084013e612fcc565b606091505b50600081511415613012576040517f08c379a0000000000000000000000000000000000000000000000000000000008152600401613009906147da565b60405180910390fd5b805181602001fd5b63150b7a0260e01b7bffffffffffffffffffffffffffffffffffffffffffffffffffffffff1916817bffffffffffffffffffffffffffffffffffffffffffffffffffffffff19161491505061306f565b600190505b949350505050565b606060008214156130bf576040518060400160405280600181526020017f3000000000000000000000000000000000000000000000000000000000000000815250905061321f565b600082905060005b600082146130f15780806130da90614d09565b915050600a826130ea9190614ab7565b91506130c7565b60008167ffffffffffffffff811115613133577f4e487b7100000000000000000000000000000000000000000000000000000000600052604160045260246000fd5b6040519080825280601f01601f1916602001820160405280156131655781602001600182028036833780820191505090505b5090505b600085146132185760018261317e9190614b76565b9150600a8561318d9190614d52565b60306131999190614a61565b60f81b8183815181106131d5577f4e487b7100000000000000000000000000000000000000000000000000000000600052603260045260246000fd5b60200101907effffffffffffffffffffffffffffffffffffffffffffffffffffffffffffff1916908160001a905350600a856132119190614ab7565b9450613169565b8093505050505b919050565b6060600082519050600081141561324d57604051806020016040528060008152509150506133dd565b6000600360028361325e9190614a61565b6132689190614ab7565b60046132749190614ae8565b905060006020826132859190614a61565b67ffffffffffffffff8111156132c4577f4e487b7100000000000000000000000000000000000000000000000000000000600052604160045260246000fd5b6040519080825280601f01601f1916602001820160405280156132f65781602001600182028036833780820191505090505b5090506000604051806060016040528060408152602001615890604091399050600181016020830160005b8681101561339a5760038101905062ffffff818a015116603f8160121c168401518060081b905060ff603f83600c1c1686015116810190508060081b905060ff603f8360061c1686015116810190508060081b905060ff603f831686015116810190508060e01b90508084526004840193505050613321565b5060038606600181146133b457600281146133c4576133cf565b613d3d60f01b60028303526133cf565b603d60f81b60018303525b508484525050819450505050505b919050565b6000816040516020016133f591906143c6565b6040516020818303038152906040528051906020012060001c9050919050565b50505050565b50505050565b600080549050600073ffffffffffffffffffffffffffffffffffffffff168473ffffffffffffffffffffffffffffffffffffffff161415613497576040517f08c379a000000000000000000000000000000000000000000000000000000000815260040161348e9061481a565b60405180910390fd5b6134a081612015565b156134e0576040517f08c379a00000000000000000000000000000000000000000000000000000000081526004016134d7906147fa565b60405180910390fd5b7f0000000000000000000000000000000000000000000000000000000000000000831115613543576040517f08c379a000000000000000000000000000000000000000000000000000000000815260040161353a906148ba565b60405180910390fd5b6135506000858386613415565b6000600460008673ffffffffffffffffffffffffffffffffffffffff1673ffffffffffffffffffffffffffffffffffffffff1681526020019081526020016000206040518060400160405290816000820160009054906101000a90046fffffffffffffffffffffffffffffffff166fffffffffffffffffffffffffffffffff166fffffffffffffffffffffffffffffffff1681526020016000820160109054906101000a90046fffffffffffffffffffffffffffffffff166fffffffffffffffffffffffffffffffff166fffffffffffffffffffffffffffffffff16815250509050604051806040016040528085836000015161364d9190614a1b565b6fffffffffffffffffffffffffffffffff1681526020018583602001516136749190614a1b565b6fffffffffffffffffffffffffffffffff16815250600460008773ffffffffffffffffffffffffffffffffffffffff1673ffffffffffffffffffffffffffffffffffffffff16815260200190815260200160002060008201518160000160006101000a8154816fffffffffffffffffffffffffffffffff02191690836fffffffffffffffffffffffffffffffff16021790555060208201518160000160106101000a8154816fffffffffffffffffffffffffffffffff02191690836fffffffffffffffffffffffffffffffff16021790555090505060405180604001604052808673ffffffffffffffffffffffffffffffffffffffff1681526020014267ffffffffffffffff168152506003600084815260200190815260200160002060008201518160000160006101000a81548173ffffffffffffffffffffffffffffffffffffffff021916908373ffffffffffffffffffffffffffffffffffffffff16021790555060208201518160000160146101000a81548167ffffffffffffffff021916908367ffffffffffffffff160217905550905050600082905060005b858110156138e357818773ffffffffffffffffffffffffffffffffffffffff16600073ffffffffffffffffffffffffffffffffffffffff167fddf252ad1be2c89b69c2b068fc378daa952ba7f163c4a11628f55a4df523b3ef60405160405180910390a46138836000888488612ee0565b6138c2576040517f08c379a00000000000000000000000000000000000000000000000000000000081526004016138b9906147da565b60405180910390fd5b81806138cd90614d09565b92505080806138db90614d09565b915050613812565b50806000819055506138f8600087858861341b565b505050505050565b60008151905060006a636f6e736f6c652e6c6f679050602083016000808483855afa5050505050565b6000808273ffffffffffffffffffffffffffffffffffffffff163b119050919050565b60405180604001604052806002905b606081526020019060019003908161395b5790505090565b6040518060400160405280600073ffffffffffffffffffffffffffffffffffffffff168152602001600067ffffffffffffffff1681525090565b60006139c06139bb8461493a565b614915565b905080838252602082019050828560208602820111156139df57600080fd5b60005b85811015613a0f57816139f58882613ac3565b8452602084019350602083019250506001810190506139e2565b5050509392505050565b6000613a2c613a2784614966565b614915565b90508083825260208201905082856020860282011115613a4b57600080fd5b60005b85811015613a7b5781613a618882613b95565b845260208401935060208301925050600181019050613a4e565b5050509392505050565b6000613a98613a9384614992565b614915565b905082815260208101848484011115613ab057600080fd5b613abb848285614c3a565b509392505050565b600081359050613ad2816156fd565b92915050565b600082601f830112613ae957600080fd5b8135613af98482602086016139ad565b91505092915050565b600082601f830112613b1357600080fd5b8135613b23848260208601613a19565b91505092915050565b600081359050613b3b81615714565b92915050565b600081359050613b508161572b565b92915050565b600081519050613b658161572b565b92915050565b600082601f830112613b7c57600080fd5b8135613b8c848260208601613a85565b91505092915050565b600081359050613ba481615742565b92915050565b600060208284031215613bbc57600080fd5b6000613bca84828501613ac3565b91505092915050565b60008060408385031215613be657600080fd5b6000613bf485828601613ac3565b9250506020613c0585828601613ac3565b9150509250929050565b600080600060608486031215613c2457600080fd5b6000613c3286828701613ac3565b9350506020613c4386828701613ac3565b9250506040613c5486828701613b95565b9150509250925092565b60008060008060808587031215613c7457600080fd5b6000613c8287828801613ac3565b9450506020613c9387828801613ac3565b9350506040613ca487828801613b95565b925050606085013567ffffffffffffffff811115613cc157600080fd5b613ccd87828801613b6b565b91505092959194509250565b60008060408385031215613cec57600080fd5b6000613cfa85828601613ac3565b9250506020613d0b85828601613b2c565b9150509250929050565b60008060408385031215613d2857600080fd5b6000613d3685828601613ac3565b9250506020613d4785828601613b95565b9150509250929050565b60008060408385031215613d6457600080fd5b600083013567ffffffffffffffff811115613d7e57600080fd5b613d8a85828601613ad8565b925050602083013567ffffffffffffffff811115613da757600080fd5b613db385828601613b02565b9150509250929050565b600060208284031215613dcf57600080fd5b6000613ddd84828501613b41565b91505092915050565b600060208284031215613df857600080fd5b6000613e0684828501613b56565b91505092915050565b600060208284031215613e2157600080fd5b6000613e2f84828501613b95565b91505092915050565b613e4181614baa565b82525050565b613e5081614bbc565b82525050565b6000613e61826149d8565b613e6b81856149ee565b9350613e7b818560208601614c49565b613e8481614e3f565b840191505092915050565b6000613e9a826149e3565b613ea481856149ff565b9350613eb4818560208601614c49565b613ebd81614e3f565b840191505092915050565b6000613ed3826149e3565b613edd8185614a10565b9350613eed818560208601614c49565b80840191505092915050565b60008154613f0681614ca6565b613f108186614a10565b94506001821660008114613f2b5760018114613f3c57613f6f565b60ff19831686528186019350613f6f565b613f45856149c3565b60005b83811015613f6757815481890152600182019150602081019050613f48565b838801955050505b50505092915050565b6000613f856022836149ff565b9150613f9082614e50565b604082019050919050565b6000613fa86026836149ff565b9150613fb382614e9f565b604082019050919050565b6000613fcb602a836149ff565b9150613fd682614eee565b604082019050919050565b6000613fee6023836149ff565b9150613ff982614f3d565b604082019050919050565b60006140116025836149ff565b915061401c82614f8c565b604082019050919050565b6000614034600283614a10565b915061403f82614fdb565b600282019050919050565b60006140576023836149ff565b915061406282615004565b604082019050919050565b600061407a600183614a10565b915061408582615053565b600182019050919050565b600061409d600183614a10565b91506140a88261507c565b600182019050919050565b60006140c06039836149ff565b91506140cb826150a5565b604082019050919050565b60006140e3600283614a10565b91506140ee826150f4565b600282019050919050565b6000614106602b836149ff565b91506141118261511d565b604082019050919050565b6000614129600f83614a10565b91506141348261516c565b600f82019050919050565b600061414c6012836149ff565b915061415782615195565b602082019050919050565b600061416f6026836149ff565b915061417a826151be565b604082019050919050565b60006141926020836149ff565b915061419d8261520d565b602082019050919050565b60006141b5601a836149ff565b91506141c082615236565b602082019050919050565b60006141d86032836149ff565b91506141e38261525f565b604082019050919050565b60006141fc61010083614a10565b9150614207826152ae565b61010082019050919050565b6000614220601d83614a10565b915061422b826153e1565b601d82019050919050565b60006142436022836149ff565b915061424e8261540a565b604082019050919050565b6000614266600383614a10565b915061427182615459565b600382019050919050565b60006142896033836149ff565b915061429482615482565b604082019050919050565b60006142ac601d836149ff565b91506142b7826154d1565b602082019050919050565b60006142cf6021836149ff565b91506142da826154fa565b604082019050919050565b60006142f2602e836149ff565b91506142fd82615549565b604082019050919050565b6000614315601f836149ff565b915061432082615598565b602082019050919050565b6000614338602f836149ff565b9150614343826155c1565b604082019050919050565b600061435b602d836149ff565b915061436682615610565b604082019050919050565b600061437e6022836149ff565b91506143898261565f565b604082019050919050565b60006143a16028836149ff565b91506143ac826156ae565b604082019050919050565b6143c081614c30565b82525050565b60006143d28284613ec8565b915081905092915050565b60006143e98285613ec8565b91506143f58284613ec8565b91508190509392505050565b600061440d8285613ec8565b91506144188261406d565b91506144248284613ef9565b91508190509392505050565b600061443b82614090565b91506144478286613ec8565b91506144528261406d565b915061445e8285613ec8565b915061446982614027565b91506144758284613ec8565b9150819050949350505050565b600061448d82614090565b91506144998286613ec8565b91506144a48261406d565b91506144b08285613ec8565b91506144bb82614027565b91506144c78284613ec8565b91506144d282614259565b9150819050949350505050565b60006144ea8261411c565b91506144f68285613ec8565b9150614501826141ee565b915061450d8284613ec8565b9150614518826140d6565b91508190509392505050565b600061452f82614213565b915061453b8284613ec8565b915081905092915050565b600060208201905061455b6000830184613e38565b92915050565b60006080820190506145766000830187613e38565b6145836020830186613e38565b61459060408301856143b7565b81810360608301526145a28184613e56565b905095945050505050565b60006020820190506145c26000830184613e47565b92915050565b600060208201905081810360008301526145e28184613e8f565b905092915050565b600060408201905081810360008301526146048185613e8f565b905061461360208301846143b7565b9392505050565b6000602082019050818103600083015261463381613f78565b9050919050565b6000602082019050818103600083015261465381613f9b565b9050919050565b6000602082019050818103600083015261467381613fbe565b9050919050565b6000602082019050818103600083015261469381613fe1565b9050919050565b600060208201905081810360008301526146b381614004565b9050919050565b600060208201905081810360008301526146d38161404a565b9050919050565b600060208201905081810360008301526146f3816140b3565b9050919050565b60006020820190508181036000830152614713816140f9565b9050919050565b600060208201905081810360008301526147338161413f565b9050919050565b6000602082019050818103600083015261475381614162565b9050919050565b6000602082019050818103600083015261477381614185565b9050919050565b60006020820190508181036000830152614793816141a8565b9050919050565b600060208201905081810360008301526147b3816141cb565b9050919050565b600060208201905081810360008301526147d381614236565b9050919050565b600060208201905081810360008301526147f38161427c565b9050919050565b600060208201905081810360008301526148138161429f565b9050919050565b60006020820190508181036000830152614833816142c2565b9050919050565b60006020820190508181036000830152614853816142e5565b9050919050565b6000602082019050818103600083015261487381614308565b9050919050565b600060208201905081810360008301526148938161432b565b9050919050565b600060208201905081810360008301526148b38161434e565b9050919050565b600060208201905081810360008301526148d381614371565b9050919050565b600060208201905081810360008301526148f381614394565b9050919050565b600060208201905061490f60008301846143b7565b92915050565b600061491f614930565b905061492b8282614cd8565b919050565b6000604051905090565b600067ffffffffffffffff82111561495557614954614e10565b5b602082029050602081019050919050565b600067ffffffffffffffff82111561498157614980614e10565b5b602082029050602081019050919050565b600067ffffffffffffffff8211156149ad576149ac614e10565b5b6149b682614e3f565b9050602081019050919050565b60008190508160005260206000209050919050565b600081519050919050565b600081519050919050565b600082825260208201905092915050565b600082825260208201905092915050565b600081905092915050565b6000614a2682614bf4565b9150614a3183614bf4565b9250826fffffffffffffffffffffffffffffffff03821115614a5657614a55614d83565b5b828201905092915050565b6000614a6c82614c30565b9150614a7783614c30565b9250827fffffffffffffffffffffffffffffffffffffffffffffffffffffffffffffffff03821115614aac57614aab614d83565b5b828201905092915050565b6000614ac282614c30565b9150614acd83614c30565b925082614add57614adc614db2565b5b828204905092915050565b6000614af382614c30565b9150614afe83614c30565b9250817fffffffffffffffffffffffffffffffffffffffffffffffffffffffffffffffff0483118215151615614b3757614b36614d83565b5b828202905092915050565b6000614b4d82614bf4565b9150614b5883614bf4565b925082821015614b6b57614b6a614d83565b5b828203905092915050565b6000614b8182614c30565b9150614b8c83614c30565b925082821015614b9f57614b9e614d83565b5b828203905092915050565b6000614bb582614c10565b9050919050565b60008115159050919050565b60007fffffffff0000000000000000000000000000000000000000000000000000000082169050919050565b60006fffffffffffffffffffffffffffffffff82169050919050565b600073ffffffffffffffffffffffffffffffffffffffff82169050919050565b6000819050919050565b82818337600083830152505050565b60005b83811015614c67578082015181840152602081019050614c4c565b83811115614c76576000848401525b50505050565b6000614c8782614c30565b91506000821415614c9b57614c9a614d83565b5b600182039050919050565b60006002820490506001821680614cbe57607f821691505b60208210811415614cd257614cd1614de1565b5b50919050565b614ce182614e3f565b810181811067ffffffffffffffff82111715614d0057614cff614e10565b5b80604052505050565b6000614d1482614c30565b91507fffffffffffffffffffffffffffffffffffffffffffffffffffffffffffffffff821415614d4757614d46614d83565b5b600182019050919050565b6000614d5d82614c30565b9150614d6883614c30565b925082614d7857614d77614db2565b5b828206905092915050565b7f4e487b7100000000000000000000000000000000000000000000000000000000600052601160045260246000fd5b7f4e487b7100000000000000000000000000000000000000000000000000000000600052601260045260246000fd5b7f4e487b7100000000000000000000000000000000000000000000000000000000600052602260045260246000fd5b7f4e487b7100000000000000000000000000000000000000000000000000000000600052604160045260246000fd5b6000601f19601f8301169050919050565b7f455243373231413a206f776e657220696e646578206f7574206f6620626f756e60008201527f6473000000000000000000000000000000000000000000000000000000000000602082015250565b7f4f776e61626c653a206e6577206f776e657220697320746865207a65726f206160008201527f6464726573730000000000000000000000000000000000000000000000000000602082015250565b7f455243373231413a206f776e657220717565727920666f72206e6f6e6578697360008201527f74656e7420746f6b656e00000000000000000000000000000000000000000000602082015250565b7f455243373231413a20676c6f62616c20696e646578206f7574206f6620626f7560008201527f6e64730000000000000000000000000000000000000000000000000000000000602082015250565b7f455243373231413a207472616e7366657220746f20746865207a65726f20616460008201527f6472657373000000000000000000000000000000000000000000000000000000602082015250565b7f2220000000000000000000000000000000000000000000000000000000000000600082015250565b7f53746f70206d696e74696e6720746f6f206d616e792c2067726565647920667560008201527f636b2e0000000000000000000000000000000000000000000000000000000000602082015250565b7f2000000000000000000000000000000000000000000000000000000000000000600082015250565b7f2200000000000000000000000000000000000000000000000000000000000000600082015250565b7f455243373231413a20617070726f76652063616c6c6572206973206e6f74206f60008201527f776e6572206e6f7220617070726f76656420666f7220616c6c00000000000000602082015250565b7f227d000000000000000000000000000000000000000000000000000000000000600082015250565b7f455243373231413a2062616c616e636520717565727920666f7220746865207a60008201527f65726f2061646472657373000000000000000000000000000000000000000000602082015250565b7f7b226e616d65223a202242616720230000000000000000000000000000000000600082015250565b7f72656163686564206d617820737570706c790000000000000000000000000000600082015250565b7f455243373231413a207472616e736665722066726f6d20696e636f727265637460008201527f206f776e65720000000000000000000000000000000000000000000000000000602082015250565b7f4f776e61626c653a2063616c6c6572206973206e6f7420746865206f776e6572600082015250565b7f455243373231413a20617070726f766520746f2063616c6c6572000000000000600082015250565b7f455243373231413a207472616e736665722063616c6c6572206973206e6f742060008201527f6f776e6572206e6f7220617070726f7665640000000000000000000000000000602082015250565b7f222c20226465736372697074696f6e223a20224c6f6f742069732072616e646f60008201527f6d697a656420616476656e747572657220676561722067656e6572617465642060208201527f616e642073746f726564206f6e20636861696e2e2053746174732c20696d616760408201527f65732c20616e64206f746865722066756e6374696f6e616c697479206172652060608201527f696e74656e74696f6e616c6c79206f6d697474656420666f72206f746865727360808201527f20746f20696e746572707265742e204665656c206672656520746f207573652060a08201527f4c6f6f7420696e20616e792077617920796f752077616e742e222c2022696d6160c08201527f6765223a2022646174613a696d6167652f7376672b786d6c3b6261736536342c60e082015250565b7f646174613a6170706c69636174696f6e2f6a736f6e3b6261736536342c000000600082015250565b7f455243373231413a20617070726f76616c20746f2063757272656e74206f776e60008201527f6572000000000000000000000000000000000000000000000000000000000000602082015250565b7f202b310000000000000000000000000000000000000000000000000000000000600082015250565b7f455243373231413a207472616e7366657220746f206e6f6e204552433732315260008201527f6563656976657220696d706c656d656e74657200000000000000000000000000602082015250565b7f455243373231413a20746f6b656e20616c7265616479206d696e746564000000600082015250565b7f455243373231413a206d696e7420746f20746865207a65726f2061646472657360008201527f7300000000000000000000000000000000000000000000000000000000000000602082015250565b7f455243373231413a20756e61626c6520746f2067657420746f6b656e206f662060008201527f6f776e657220627920696e646578000000000000000000000000000000000000602082015250565b7f5265656e7472616e637947756172643a207265656e7472616e742063616c6c00600082015250565b7f455243373231413a20756e61626c6520746f2064657465726d696e652074686560008201527f206f776e6572206f6620746f6b656e0000000000000000000000000000000000602082015250565b7f455243373231413a20617070726f76656420717565727920666f72206e6f6e6560008201527f78697374656e7420746f6b656e00000000000000000000000000000000000000602082015250565b7f455243373231413a207175616e7469747920746f206d696e7420746f6f20686960008201527f6768000000000000000000000000000000000000000000000000000000000000602082015250565b7f61646472657373657320646f6573206e6f74206d61746368206e756d536c6f7460008201527f73206c656e677468000000000000000000000000000000000000000000000000602082015250565b61570681614baa565b811461571157600080fd5b50565b61571d81614bbc565b811461572857600080fd5b50565b61573481614bc8565b811461573f57600080fd5b50565b61574b81614c30565b811461575657600080fd5b5056fe3c7376672076696577426f783d2230203020323030203130302220786d6c6e733d22687474703a2f2f7777772e77332e6f72672f323030302f737667223e3c706174682066696c6c3d226e6f6e6522207374726f6b653d226c69676874677265792220643d224d32302c3530204332302c2d3530203138302c313530203138302c353020433138302d35302032302c3135302032302c3530207a22202f3e3c636972636c6520723d2235222066696c6c3d22726564223e3c616e696d6174654d6f74696f6e206475723d223130732220726570656174436f756e743d22696e646566696e6974652220706174683d224d32302c3530204332302c2d3530203138302c313530203138302c353020433138302d35302032302c3135302032302c3530207a22202f3e3c2f636972636c653e3c2f7376673e4142434445464748494a4b4c4d4e4f505152535455565758595a6162636465666768696a6b6c6d6e6f707172737475767778797a303132333435363738392b2fa264697066735822122016825336df4957e583d02a0e10a6528fed5395257ce916ce2b12bb5ecd08eebe64736f6c63430008040033",
  "linkReferences": {},
  "deployedLinkReferences": {}
}